:100000000C945D000C9485000C9485000C94850084
:100010000C9485000C9485000C9485000C9485004C
:100020000C9485000C9485000C9485000C9485003C
:100030000C9485000C9485000C9485000C9485002C
:100040000C94EA060C9485000C945A070C9434071F
:100050000C9485000C9485000C9485000C9485000C
:100060000C9485000C9485000000000024002700FB
:100070002A0000000000250028002B0004040404CE
:100080000404040402020202020203030303030342
:10009000010204081020408001020408102001021F
:1000A00004081020000000080002010000030407FB
:1000B00000000000000000008C0711241FBECFEFDD
:1000C000D8E0DEBFCDBF11E0A0E0B1E0E8E5F0E2AE
:1000D00002C005900D92A23DB107D9F722E0A2ED32
:1000E000B1E001C01D92AC3BB207E1F710E0CDE5F5
:1000F000D0E004C02197FE010E94260BCC35D10729
:10010000C9F70E94DB070C942A100C94000090E0C1
:10011000FC01EC55FF4F2491FC01E057FF4F349157
:10012000FC01E458FF4FE491EE23C9F0222339F09B
:10013000233001F1A8F4213019F1223029F1F0E047
:10014000EE0FFF1FEE58FF4FA591B4918FB7F894B3
:10015000EC91611126C030953E233C938FBF0895EA
:100160002730A9F02830C9F0243049F78091800069
:100170008F7D03C0809180008F7780938000DFCFD8
:1001800084B58F7784BDDBCF84B58F7DFBCF809125
:10019000B0008F778093B000D2CF8091B0008F7D78
:1001A000F9CF3E2BDACFCF93DF9390E0FC01E057FD
:1001B000FF4F249184589F4FFC0184918823D1F0F4
:1001C00090E0880F991FFC01E859FF4FA591B49169
:1001D000FC01EE58FF4FC591D49161110EC09FB73D
:1001E000F8948C91E22FE0958E238C932881E22362
:1001F000E8839FBFDF91CF9108958FB7F894EC917A
:10020000E22BEC938FBFF6CF8E3008F08E508770C4
:10021000806480937C0080917A00806480937A006F
:1002200080917A0086FDFCCF8091780090917900D2
:1002300008953FB7F89480910B0290910C02A09121
:100240000D02B0910E0226B5A89B05C02F3F19F0F4
:100250000196A11DB11D3FBFBA2FA92F982F882746
:10026000BC01CD01620F711D811D911D42E0660F21
:10027000771F881F991F4A95D1F70895AF92BF92B3
:10028000CF92DF92EF92FF920F931F93CF93DF9362
:100290006C017B018B01040F151FEB015E01AE1891
:1002A000BF08C017D10759F06991D601ED91FC91B3
:1002B0000190F081E02DC6010995892B79F7C501E0
:1002C000DF91CF911F910F91FF90EF90DF90CF9032
:1002D000BF90AF900895FC01538D448D252F30E0E1
:1002E000842F90E0821B930B541710F0CF96089543
:1002F00001970895FC01918D828D981761F0A28D70
:10030000AE0FBF2FB11D5D968C91928D9F5F9F7335
:10031000928F90E008958FEF9FEF0895FC01918DEB
:10032000828D981731F0828DE80FF11D858D90E058
:1003300008958FEF9FEF0895FC01918D228D892FF5
:1003400090E0805C9F4F821B91098F7399270895DD
:100350008FE092E00E949C0121E0892B09F420E0CB
:10036000822F089580E090E0892B29F00E94A80157
:1003700081110C9400000895FC01A48DA80FB92FE1
:10038000B11DA35ABF4F2C91848D90E001968F73BD
:100390009927848FA689B7892C93A089B1898C91DC
:1003A000837080648C93938D848D981306C002882B
:1003B000F389E02D80818F7D80830895EF92FF92F5
:1003C0000F931F93CF93DF93EC0181E0888F9B8D78
:1003D0008C8D98131AC0E889F989808185FF15C032
:1003E0009FB7F894EE89FF896083E889F989808155
:1003F0008370806480839FBF81E090E0DF91CF9124
:100400001F910F91FF90EF900895F62E0B8D10E045
:100410000F5F1F4F0F731127E02E8C8D8E110CC0B4
:100420000FB607FCFACFE889F989808185FFF5CFFF
:10043000CE010E94BC01F1CFEB8DEC0FFD2FF11D21
:10044000E35AFF4FF0829FB7F8940B8FEA89FB893C
:1004500080818062CFCFCF93DF93EC01888D88239A
:10046000B9F0AA89BB89E889F9898C9185FD03C017
:10047000808186FD0DC00FB607FCF7CF8C9185FFFC
:10048000F2CF808185FFEDCFCE010E94BC01E9CF84
:10049000DF91CF910895CF92DF92EF92FF920F9369
:1004A0001F93CF93DF938C016A017B01DC011296CD
:1004B000ED91FC9180810E940401BC01990F880B91
:1004C000990B0E94520C9B01AC01C701B6010E941E
:1004D000A80B20E030E04FE753E40E94DE0C6B01F4
:1004E0007C01F80164817581072E000C880B990B43
:1004F0000E94520C9B01AC01C701B6010E94DE0CA8
:100500000E941A0C6B01EB01209709F467C060E0B0
:10051000D8018C910E948700F801118161E0812F40
:100520000E94D300CF3FD10511F461E010C0E12F4C
:10053000F0E0EC55FF4FE491E330B1F198F4E13095
:1005400009F1E23061F1C038D1057CF760E0812F1C
:10055000DF91CF911F910F91FF90EF90DF90CF909F
:100560000C948700E73051F1E83081F1E43059F71D
:1005700080918000806280938000D0928B00C09236
:100580008A0004C084B5806884BDC7BCDF91CF9168
:100590001F910F91FF90EF90DF90CF90089584B559
:1005A000806284BDC8BCF2CF809180008068809357
:1005B0008000D0928900C0928800E8CF8091B0007E
:1005C00080688093B000C092B300E0CF8091B0000B
:1005D00080628093B000C092B400D8CF61E0D801AF
:1005E0008C910E948700F801C18161E08C2F0E94EC
:1005F000D30061E08C2FACCFCF92DF92EF92FF92CD
:100600008091DA0181110DC00E9419016093D60119
:100610007093D7018093D8019093D90181E08093A2
:10062000DA010E941901C090D601D090D701E09064
:10063000D801F090D9016C197D098E099F096031AC
:1006400077428105910568F30E9419016093D601F4
:100650007093D7018093D8019093D901C090D201B3
:10066000D090D301E090D401F090D501B701A6015C
:1006700084EB92E00E944B02B701A6018EEA92E061
:10068000FF90EF90DF90CF900C944B02CF92DF92CF
:10069000EF92FF92CF93C82F8091000290910102B8
:1006A000DC01ED91FC910480F581E02D0995049722
:1006B0000CF04DC00E941901C090E201D090E301FE
:1006C000E090E401F090E5016C197D098E099F0925
:1006D0006093EE017093EF018093F0019093F1012C
:1006E0000E9419016B017C01C092E201D092E301EA
:1006F000E092E401F092E5010E94FC020E941901DF
:100700006C197D098E099F096093EA017093EB01D2
:100710008093EC019093ED010E9419016093E60132
:100720007093E7018093E8019093E90180910002C2
:1007300090910102DC01ED91FC910190F081E02D9E
:100740006C2FCF91FF90EF90DF90CF9009940E9493
:100750001901C090E601D090E701E090E801F09027
:10076000E9019B01AC012C193D094E095F096901A2
:100770007A012091EE013091EF014091F00150910A
:10078000F101A4E1B0E00E941B0B672F782F892FA5
:1007900099276C157D058E059F0508F48BCFC6CF74
:1007A000FB0101900020E9F73197AF01461B570B81
:1007B000DC01ED91FC910280F381E02D09948F9290
:1007C0009F92AF92BF92EF92FF920F931F93CF939E
:1007D000DF93CDB7DEB7A1970FB6F894DEBF0FBE9B
:1007E000CDBF7C01FA01CB0119A2223008F42AE026
:1007F0008E010F5D1F4F822E912CB12CA12CBF01B9
:10080000A50194010E94DA0AF901CA016A300CF5C7
:10081000605DD8016E938D01232B242B252B79F756
:1008200090E080E0109721F0BD01C7010E94D00345
:10083000A1960FB6F894DEBF0FBECDBFDF91CF916A
:100840001F910F91FF90EF90BF90AF909F908F906E
:100850000895695CDECFCF93C82F66E271E0809186
:10086000AC029091AD020E94D0034C2F50E070E09A
:1008700060E02AE08091AC029091AD02CF910C949F
:10088000DF03CF93C62F0E942B048091AC0290917E
:10089000AD02DC01ED91FC910190F081E02D6BE364
:1008A00009954C2F50E070E060E02AE08091AC02A6
:1008B0009091AD020E94DF038091AC029091AD0255
:1008C000DC01ED91FC910190F081E02D68E4CF9185
:1008D00009940E942B048091AC029091AD02DC013E
:1008E000ED91FC910190F081E02D6DE60994CF929D
:1008F000DF92EF92FF92CF93DF93EC0180910002A1
:1009000090910102DC01ED91FC910480F581E02DD4
:10091000099504970CF049C00E941901C090E201AA
:10092000D090E301E090E401F090E5016C197D09BD
:100930008E099F096093EE017093EF018093F0019F
:100940009093F1010E9419016B017C01C092E201B8
:10095000D092E301E092E401F092E5010E94FC02F2
:100960000E9419016C197D098E099F096093EA01A3
:100970007093EB018093EC019093ED010E941901BB
:100980006093E6017093E7018093E8019093E90199
:10099000BE018091000290910102DF91CF91FF9002
:1009A000EF90DF90CF900C94D0030E941901C0907B
:1009B000E601D090E701E090E801F090E9019B01A9
:1009C000AC012C193D094E095F0969017A0120919A
:1009D000EE013091EF014091F0015091F101A4E15D
:1009E000B0E00E941B0B672F782F892F99276C1579
:1009F0007D058E059F0508F48FCFCACFEF92FF9239
:100A00000F931F93CF93DF93CDB7DEB76B970FB6DE
:100A1000F894DEBF0FBECDBF62E084E00E944104C7
:100A200080E00E9469048091FE019091FF0101978E
:100A300019F487E00E9469048E010F5F1F4F8BE15C
:100A4000F80111928A95E9F70E9419019F938F93FB
:100A50007F936F9389E291E09F938F931F930F93FE
:100A60000E94520D7C010FB6F894DEBF0FBECDBFC1
:100A70009FEFE916F90629F0EAE1EE16F1040CF40D
:100A800070C08BE391E00E94770462E085E00E94F1
:100A9000410480E00E9469048091FE019091FF0171
:100AA000029719F487E00E9469048BE1F801119222
:100AB0008A95E9F72FB7F894809107029091080280
:100AC000A0910902B0910A022FBFBF93AF939F93E9
:100AD0008F9385E591E09F938F931F930F930E94CF
:100AE000520D7C010FB6F894DEBF0FBECDBF9FEF55
:100AF000E916F90629F0EAE1EE16F1040CF440C01B
:100B00008BE391E00E94770462E086E00E9441045A
:100B100080E00E94690481E00E9469048091FE01E6
:100B20009091FF01039709F050C087E00E9469048B
:100B30008091020290910302009709F446C082302E
:100B4000910569F18330910509F406C10197E9F532
:100B50001092D2011092D3011092D4011092D501BB
:100B600034C0C8010E947704F9E1EF16F10409F4DA
:100B70008CCF80E20E9446038FEFE81AF80AF4CF88
:100B8000C8010E947704F9E1EF16F10409F4BCCF23
:100B900080E20E9446038FEFE81AF80AF4CF2DECAA
:100BA0003CEC4CEC5DE36091D2017091D3018091FB
:100BB000D4019091D5010E943C0B6093D2017093B7
:100BC000D3018093D4019093D5018BE1F801119268
:100BD0008A95E9F720E030E04AE754E46091D201D9
:100BE0007091D3018091D4019091D5010E94DE0CC7
:100BF0000E941A0C7F936F9387E691E09F938F93E7
:100C00001F930F930E94520D7C010F900F900F9035
:100C10000F900F900F90019629F08AE1E816F104E9
:100C20000CF4A9C08BE391E00E94770462E087E0B6
:100C30000E94410480E00E9469048091FE0190912D
:100C4000FF01049719F487E00E9469048BE1F80121
:100C500011928A95E9F76FE671E0C8010E944B0D89
:100C6000C8010E94770484E1E82EF12C80E20E9402
:100C70004603F1E0EF1AF108C9F762E088E00E944C
:100C8000410480E00E9469048091FE019091FF017F
:100C9000059719F487E00E9469048BE1F80111922D
:100CA0008A95E9F78091BA020E940401BC01990F6C
:100CB000880B990B0E94520C20E030E04AE754E484
:100CC0000E94DE0C0E941A0C7F936F9385E791E0DF
:100CD0009F938F931F930F930E94520D7C010F904F
:100CE0000F900F900F900F900F90019629F08AE1CE
:100CF000E816F1040CF44EC08BE391E00E947704F7
:100D000062E089E00E94410480E00E9469048091D1
:100D1000FE019091FF01069719F487E00E94690493
:100D20008BE1F80111928A95E9F762E871E0C80158
:100D30000E944B0DC8010E94770486E090E06B96FC
:100D40000FB6F894DEBF0FBECDBFDF91CF911F91DC
:100D50000F91FF90EF9008952DEC3CEC4CEC5DE38F
:100D60006091D2017091D3018091D4019091D5010D
:100D70000E943B0B22CFC8010E94770499E1E9163B
:100D8000F10409F453CF80E20E944603EFEFEE1A1C
:100D9000FE0AF4CFC8010E94770499E1E916F10434
:100DA00009F4AECF80E20E944603EFEFEE1AFE0A8E
:100DB000F4CFCF93C4E062E08C2F0E94410482E81C
:100DC00091E00E947704CF5FCA30A9F781E090E0FC
:100DD000CF9108951F920F920FB60F9211242F9367
:100DE0003F938F939F93AF93BF938091070290910E
:100DF0000802A0910902B0910A023091060223E094
:100E0000230F2D3758F50196A11DB11D2093060221
:100E10008093070290930802A0930902B0930A02FC
:100E200080910B0290910C02A0910D02B0910E02E4
:100E30000196A11DB11D80930B0290930C02A0930B
:100E40000D02B0930E02BF91AF919F918F913F9190
:100E50002F910F900FBE0F901F90189526E8230F2B
:100E60000296A11DB11DD2CF1F920F920FB60F9205
:100E700011242F933F934F935F936F937F938F939F
:100E80009F93AF93BF93EF93FF938FE092E00E9405
:100E9000BC01FF91EF91BF91AF919F918F917F9195
:100EA0006F915F914F913F912F910F900FBE0F90D7
:100EB0001F9018951F920F920FB60F9211242F9327
:100EC0008F939F93EF93FF93E0911F02F091200285
:100ED0008081E0912502F091260282FD1BC0908165
:100EE000809128028F5F8F7320912902821741F031
:100EF000E0912802F0E0E15FFD4F958F809328029A
:100F0000FF91EF919F918F912F910F900FBE0F90B6
:100F10001F9018958081F4CFEFE0F2E013821282E7
:100F200088EE93E0A0E0B0E084839583A683B78346
:100F300088E191E09183808385EC90E095878487B8
:100F400084EC90E09787868780EC90E0918B808B93
:100F500081EC90E0938B828B82EC90E0958B848B7C
:100F600086EC90E0978B868B118E128E138E148EEA
:100F70001092AD021092AC0285E190E09093BB021A
:100F80008093BA02E4EBF2E087E0808389E081831A
:100F900081E090E0958384838AEB92E0938382835F
:100FA000EEEAF2E028E020832AE021831582148211
:100FB000938382830895CF93DF93CDB7DEB7649791
:100FC0000FB6F894DEBF0FBECDBF789484B58260B3
:100FD00084BD84B5816084BD85B5826085BD85B5DD
:100FE000816085BD80916E00816080936E0010925B
:100FF00081008091810082608093810080918100D6
:101000008160809381008091800081608093800066
:101010008091B10084608093B1008091B0008160C4
:101020008093B00080917A00846080937A008091F0
:101030007A00826080937A0080917A008160809348
:101040007A0080917A00806880937A001092C100C3
:101050000FE012E0E0911F02F091200282E0808315
:10106000E0911B02F0911C021082E0911D02F091B0
:101070001E0280E1808310922702E0912302F0910A
:10108000240286E08083E0912102F0912202808197
:1010900080618083E0912102F0912202808188604A
:1010A0008083E0912102F091220280818068808318
:1010B000E0912102F091220280818F7D808361E0A6
:1010C00087E00E94D30061E088E00E94D30061E0E5
:1010D00089E00E94D30061E08AE00E94D30060E0D2
:1010E0008091BA020E94D300109301020093000283
:1010F0001093AD020093AC026CE971E0C8010E944C
:10110000D0038091AC029091AD02DC01ED91FC9195
:101110000680F781E02D09950E9419016B017C0181
:10112000FAE08F2E912CA12CB12C0E9419016C1980
:101130007D098E099F09683E734081059105A8F3DA
:10114000B1E08B1A9108A108B108E8EECE0EE3E0F9
:10115000DE1EE11CF11C81149104A104B10429F7E5
:101160006FE971E08091AC029091AD020E94D003D2
:101170008EEF94E090930101809300018E010F5F48
:101180001F4F78EE872E73E0972EA12CB12CEAE04A
:101190002E2E312C61E081E00E9441048BE20E94FE
:1011A000460369E1E62EF12C8DE20E94460321E020
:1011B000E21AF108C9F78BE20E94460361E08AE077
:1011C0000E9441048BE20E94460359E1E52EF12C76
:1011D0008DE20E94460331E0E31AF108C9F78BE281
:1011E0000E94460342E0F42E61E08F2D0E944104EC
:1011F0008CE70E9446036BE18F2D0E9441048CE72F
:101200000E944603F3944AE0F412EECF8091F60177
:1012100081110DC00E9419016093F2017093F301D6
:101220008093F4019093F50181E08093F60162E0F0
:1012300082E00E944104C12CD12C760180910402ED
:10124000909105028C159D0509F034C187E00E943C
:1012500069048091000290910102DC01ED91FC9102
:101260000480F581E02D099504970CF025C10E94BA
:1012700019014090E2015090E3016090E401709008
:10128000E50164197509860997096093EE01709369
:10129000EF018093F0019093F1010E9419012B015D
:1012A0003C014092E2015092E3016092E4017092AD
:1012B000E5010E94FC020E94190164197509860962
:1012C00097096093EA017093EB018093EC0190938E
:1012D000ED010E9419016093E6017093E70180938C
:1012E000E8019093E9012AE0B701A601809100028C
:1012F000909101020E94DF033FEFC31AD30AE30A71
:10130000F30A4AE0C416D104E104F10409F096CFCF
:1013100080E00E94690484E1D8011D928A95E9F772
:101320000E941901AB01BC018091EE019091EF0187
:10133000A091F001B091F1018031E7E29E07A10593
:10134000B10520F08FE097E2A0E0B0E0BF93AF934B
:101350009F938F938091EA019091EB01A091EC0112
:10136000B091ED018031F7E29F07A105B10520F0B2
:101370008FE097E2A0E0B0E0BF93AF939F938F938D
:101380008091F2019091F301A091F401B091F501E7
:101390006A017B01C81AD90AEA0AFB0AC701B60129
:1013A000A50194010E94DA0AC501B4010E94FC0A59
:1013B000243631054105510524F023E630E040E0B4
:1013C00050E05F934F933F932F9386EA91E09F9372
:1013D0008F931F930F930E94520DC8010E947704B0
:1013E00062E083E00E94410488EB91E00E94770470
:1013F0000E9419016093F2017093F3018093F4014C
:101400009093F50180910402909105020FB6F89433
:10141000DEBF0FBECDBF8A30910508F076C0880FC1
:10142000991FFC01E050FF4F0190F081E02D0995DC
:101430007C0180E00E946904109203021092020273
:101440008091000290910102DC01ED91FC910084F9
:10145000F185E02D0995892B09F49CCE809100023D
:1014600090910102DC01ED91FC910284F385E02D65
:1014700009958A36910509F46DC00CF049C0803297
:10148000910509F47CC088369105D1F68091FE0162
:101490009091FF01892B09F04EC080910402909138
:1014A00005020996B1010E94C60A90930502809335
:1014B0000402C6CF80E0CBCE0E9419014090E60125
:1014C0005090E7016090E8017090E9019B01AC0148
:1014D000241935094609570929013A012091EE01DD
:1014E0003091EF014091F0015091F101A4E1B0E0A1
:1014F0000E941B0B672F782F892F9927641575057C
:101500008605970508F4B3CEEECE0E94D90690CF9B
:101510008B36910561F18C36910509F091CF809160
:10152000FE019091FF01892B69F480910402909152
:1015300005020196B7CFE2E0F0E0F0930302E093FA
:1015400002027ECF83E0C82ED12CD0920302C0923B
:10155000020276CF8091FE019091FF010196B701C2
:101560000E94C60A9093FF018093FE0169CF80918B
:10157000FE019091FF0101978E0D9F1DF0CF21E09C
:1015800030E030930302209302025ACFAA1BBB1B08
:1015900051E107C0AA1FBB1FA617B70710F0A61B73
:1015A000B70B881F991F5A95A9F780959095BC0194
:1015B000CD010895A1E21A2EAA1BBB1BFD010DC08F
:1015C000AA1FBB1FEE1FFF1FA217B307E407F507F3
:1015D00020F0A21BB30BE40BF50B661F771F881FCF
:1015E000991F1A9469F760957095809590959B0165
:1015F000AC01BD01CF010895052E97FB1EF40094A8
:101600000E94130B57FD07D00E94DA0A07FC03D093
:101610004EF40C94130B50954095309521953F4F07
:101620004F4F5F4F089590958095709561957F4FCE
:101630008F4F9F4F08950E942C0BA59F900DB49F34
:10164000900DA49F800D911D11240895EE0FFF1F92
:101650000590F491E02D0994A29FB001B39FC001C1
:10166000A39F700D811D1124911DB29F700D811DCE
:101670001124911D08955058BB27AA270E94530B8F
:101680000C94A40C0E94960C38F00E949D0C20F043
:1016900039F49F3F19F426F40C94930C0EF4E09562
:1016A000E7FB0C948D0CE92F0E94B50C58F3BA1788
:1016B000620773078407950720F079F4A6F50C9468
:1016C000D70C0EF4E0950B2EBA2FA02D0B01B9010B
:1016D00090010C01CA01A0011124FF27591B99F0A8
:1016E000593F50F4503E68F11A16F040A22F232FB4
:1016F000342F4427585FF3CF469537952795A79504
:10170000F0405395C9F77EF41F16BA0B620B730BAA
:10171000840BBAF09150A1F0FF0FBB1F661F771F1B
:10172000881FC2F70EC0BA0F621F731F841F48F4D0
:10173000879577956795B795F7959E3F08F0B0CF59
:101740009395880F08F09927EE0F97958795089540
:101750000E94BC0B0C94A40C0E949D0C58F00E949B
:10176000960C40F029F45F3F29F00C948D0C511138
:101770000C94D80C0C94930C0E94B50C68F399232C
:10178000B1F3552391F3951B550BBB27AA2762177D
:101790007307840738F09F5F5F4F220F331F441F8A
:1017A000AA1FA9F335D00E2E3AF0E0E832D09150BE
:1017B0005040E695001CCAF72BD0FE2F29D0660FAB
:1017C000771F881FBB1F261737074807AB07B0E8EE
:1017D00009F0BB0B802DBF01FF2793585F4F3AF0F4
:1017E0009E3F510578F00C948D0C0C94D80C5F3F03
:1017F000E4F3983ED4F3869577956795B795F7957A
:101800009F5FC9F7880F911D9695879597F9089561
:10181000E1E0660F771F881FBB1F621773078407FD
:10182000BA0720F0621B730B840BBA0BEE1F88F70C
:10183000E09508950E94210C6894B1110C94D80C85
:1018400008950E94BD0C88F09F5798F0B92F9927F2
:10185000B751B0F0E1F0660F771F881F991F1AF09B
:10186000BA95C9F714C0B13091F00E94D70CB1E01D
:1018700008950C94D70C672F782F8827B85F39F01C
:10188000B93FCCF3869577956795B395D9F73EF434
:1018900090958095709561957F4F8F4F9F4F0895DC
:1018A000E89409C097FB3EF49095809570956195FA
:1018B0007F4F8F4F9F4F9923A9F0F92F96E9BB27B0
:1018C0009395F695879577956795B795F111F8CF2C
:1018D000FAF4BB0F11F460FF1BC06F5F7F4F8F4F97
:1018E0009F4F16C0882311F096E911C0772321F08D
:1018F0009EE8872F762F05C0662371F096E8862F25
:1019000070E060E02AF09A95660F771F881FDAF77B
:10191000880F9695879597F9089597F99F6780E8BE
:1019200070E060E008959FEF80EC089500240A9431
:101930001616170618060906089500240A941216AA
:101940001306140605060895092E0394000C11F4DD
:10195000882352F0BB0F40F4BF2B11F460FF04C08A
:101960006F5F7F4F8F4F9F4F089557FD9058440FE3
:10197000551F59F05F3F71F04795880F97FB991FEE
:1019800061F09F3F79F087950895121613061406AB
:10199000551FF2CF4695F1DF08C016161706180638
:1019A000991FF1CF86957105610508940895E89413
:1019B000BB2766277727CB0197F908950E94F10C82
:1019C0000C94A40C0E94960C38F00E949D0C20F000
:1019D000952311F00C948D0C0C94930C11240C9401
:1019E000D80C0E94B50C70F3959FC1F3950F50E091
:1019F000551F629FF001729FBB27F00DB11D639FC1
:101A0000AA27F00DB11DAA1F649F6627B00DA11D66
:101A1000661F829F2227B00DA11D621F739FB00D0C
:101A2000A11D621F839FA00D611D221F749F33277C
:101A3000A00D611D231F849F600D211D822F762F15
:101A40006A2F11249F5750409AF0F1F088234AF0F2
:101A5000EE0FFF1FBB1F661F771F881F915050405E
:101A6000A9F79E3F510580F00C948D0C0C94D80C76
:101A70005F3FE4F3983ED4F3869577956795B795E5
:101A8000F795E7959F5FC1F7FE2B880F911D9695FF
:101A9000879597F90895FB01DC0101900D920020D4
:101AA000E1F70895AEE0B0E0E8E5FDE00C94011048
:101AB0000D891E8986E08C831A8309838FEF9FE747
:101AC0009E838D83AE01475E5F4F6F89788DCE0117
:101AD00001960E94750D2F813885020F131FF801A2
:101AE00010822E96E4E00C941D10ABE0B0E0EBE722
:101AF000FDE00C94F30F7C013B018A01FC0117828D
:101B00001682838181FFC8C1CE0101965C01F70175
:101B10009381F30193FD859193FF81913F01882388
:101B200009F453C1853239F493FD859193FF819176
:101B30003F01853229F4B70190E00E94650FE7CF9D
:101B4000912C212C312CFFE1F31538F08B3211F15F
:101B500090F4803209F1833229F137FC3CC020ED4A
:101B6000280F2A3050F536FE20C08AE0989E200DBE
:101B70001124922E06C08D3291F0803371F7689453
:101B800030F8F30193FD859193FF81913F0181111D
:101B9000DACF21C0689431F8689432F8F2CF6894B3
:101BA00033F8EFCF689434F8ECCFEAE02E9E200DA6
:101BB0001124222E689435F8E4CF8E3229F436FCB5
:101BC00004C1689436F8DDCF8C3619F4689437F880
:101BD000D8CF8836B1F2982F9F7D95549330E0F09E
:101BE0008336A1F18337C1F1833509F063C0280141
:101BF000F2E04F0E511CF801C080D180692D70E0D9
:101C000036FC02C06FEF7FEFC6010E944F0F4C0100
:101C1000689437F882010AC00C5F1F4FFFE3F98315
:101C200088248394912C6501E89437F833FE2DC005
:101C3000522C8114910471F5552009F468CFB70135
:101C400080E290E00E94650F5A94F6CFF8018081FF
:101C500089830E5F1F4FE4CF2801F2E04F0E511C25
:101C6000F801C080D180692D70E036FC02C06FEFB2
:101C70007FEFC6010E945A0F4C018201D5CFB701F8
:101C800080E290E00E94650F2A942814190409F05C
:101C9000B0F7CECFF60137FC859137FE81916F0109
:101CA000B70190E00E94650F51105A94F1E08F1A2D
:101CB0009108BFCF843619F0893609F077C0F80152
:101CC00037FE6BC060817181828193810C5F1F4FF1
:101CD000F32DFF763F2E97FF09C090958095709564
:101CE00061957F4F8F4F9F4F689437F82AE030E01F
:101CF000A5010E94950FC82ECA188C2C432C36FEC5
:101D00000CC0E89440F8C91440F434FE05C032FC1D
:101D100003C0F32DFE7E4F2E892C44FE95C0FE019C
:101D2000EC0DF11D8081803309F087C0242D297EC0
:101D3000422E842D8870582E43FC95C040FE8FC0E3
:101D40009C2C821418F42C0C922C981844FE91C0F0
:101D5000B70180E390E00E94650F42FE09C088E76A
:101D600090E041FE02C088E590E0B7010E94650F57
:101D7000C91408F48AC0CA94D12C9FEFC91AD90A91
:101D8000CA0CDB1CF60182916F01B70190E00E9442
:101D9000650FAC14BD04B1F74FCF60817181072E80
:101DA000000C880B990B0E5F1F4F92CFD32CE89439
:101DB000D4F82AE030E0853739F1232D297FD22E5F
:101DC0008F3601F148F48835A9F0F70186819781B3
:101DD0002B96E2E10C940F10803749F08837A9F771
:101DE000D4FE02C06894D2F820E130E00DC06894BF
:101DF000D4F8F6CF34FE03C0822F8660D82E20E1BF
:101E000032E002C028E030E0F801D7FE0FC0608168
:101E10007181828193810C5F1F4FA5010E94950FF4
:101E2000C82ECA183D2CE89437F867CF60817181BD
:101E300090E080E00E5F1F4FF0CF42FC02C0839421
:101E400078CF8394839475CF842D867809F471CFED
:101E5000F6CFB70180E290E00E94650F8394821470
:101E6000C0F3512C73CF522C5818821408F46ECF43
:101E7000F8CF842D867809F47BCF8BE241FE80E297
:101E800047FC8DE2B70190E071CFB70180E390E0AD
:101E90000E94650F9A946CCF8FEF9FEF99CFFC0152
:101EA0000590615070400110D8F7809590958E0F85
:101EB0009F1F0895FC016150704001900110D8F7F8
:101EC000809590958E0F9F1F08950F931F93CF932A
:101ED000DF93182F092FEB018B8181FD09C01FEFC4
:101EE0000FEF812F902FDF91CF911F910F910895C8
:101EF00082FF14C02E813F818C819D812817390774
:101F00003CF4E881F981CF0101969983888310839D
:101F10008E819F8101969F838E83E3CFE885F9852B
:101F2000812F0995892BA1F3DACFFA01AA2728304E
:101F300051F1203181F1E8946F936E7F6E5F7F4F96
:101F40008F4F9F4FAF4FB1E03ED0B4E03CD0670F12
:101F5000781F891F9A1FA11D680F791F8A1F911D65
:101F6000A11D6A0F711D811D911DA11D20D009F4B5
:101F700068943F912AE0269F11243019305D3193F7
:101F8000DEF6CF010895462F4770405D4193B3E0E0
:101F90000FD0C9F7F6CF462F4F70405D4A3318F087
:101FA000495D31FD4052419302D0A9F7EACFB4E038
:101FB000A6959795879577956795BA95C9F70097F0
:101FC0006105710508959B01AC010A2E0694579591
:101FD000479537952795BA95C9F7620F731F841FE8
:101FE000951FA01D08952F923F924F925F926F927E
:101FF0007F928F929F92AF92BF92CF92DF92EF9299
:10200000FF920F931F93CF93DF93CDB7DEB7CA1B19
:10201000DB0B0FB6F894DEBF0FBECDBF09942A8844
:10202000398848885F846E847D848C849B84AA84EC
:10203000B984C884DF80EE80FD800C811B81AA8179
:10204000B981CE0FD11D0FB6F894DEBF0FBECDBF44
:08205000ED010895F894FFCFA3
:10205800D906D906D906D906D906D906D906D90680
:10206800D906D90600000000DE013E016B012B02F3
:102078009C017A018E011B5B00636F756E7465723B
:10208800205B75735D3A20256C7500202020202088
:1020980020737072696E7466206572726F72202088
:1020A8002020202000636F756E746572205B6D734D
:1020B8005D3A20256C750076696E3A2025640048E3
:1020C800494E543A00626174746572793A20253336
:1020D80064002020202020202020202020202020D4
:1020E8002020202020202020202020001B63001BEF
:1020F8005B3F32356C007C25326C6466737C25341A
:102108006C647C25346C64002D2D2D2D2D2D2D2DEA
:102118002D2D2D2D2D2D2D2D2D2D2D2D2D2D2D2DE7
:022128002D0088
:00000001FF
